:020000040000FA
:020000003D2899
:020008000A28C4
:0E00120052288B13A2000308A3000A08A400C2
:10002000061CA50A061822200000251A2C20000014
:100030002308830024088A00A20E220E0B118B10C5
:100040008B1709000612861606178617061826282B
:100050000616861200000800A501081C32200818A8
:1000600036200800291406138617080029100617E1
:10007000861359200613861708008601A201A301E2
:10008000A401A501A9018316013086000130880072
:100090008730810030308B008312061686120613DB
:1000A000861752288B173C30810008168812552875
:1000B00008005430A6008A30A7000330A800A80B1F
:0C00C0005F28A70B5D28A60B5B2808003A
:02400E00313F40
:00000001FF
